:020000040800F2
:1000000000200020B9000008E9090008FD090008E7
:1000100000000000000000000000000000000000E0
:10002000000000000000000000000000E9090008D6
:100030000000000000000000E9090008E9090008CC
:10004000E9090008E9090008E9090008E9090008C8
:10005000E9090008E9090008E9090008E9090008B8
:1000600000000000E9090008E9090008E9090008A2
:10007000E9090008E909000800000000E909000892
:1000800000000000E9090008000000000000000076
:10009000E909000800000000E9090008E909000872
:1000A000E9090008E9090008E9090008750C0008D9
:1000B000E9090008E909000800F012FC00F0D4FB8F
:1000C000E1235B02180000F02DFD62B6C04600F08F
:1000D00025FB024B180000F095FEFEE7F8720008C1
:1000E00080B582B000AF7860C0467B685A1E7A60E7
:1000F000002BFAD1C046C046BD4602B080BD80B5D7
:1001000000AF0B4B0B4A5A60094B00229A60084B18
:1001100005221A60C046064B1A6880235B02134012
:10012000F9D0034B00221A60C046BD4680BDC046D0
:1001300010E000E0FF7C000080B582B000AF786086
:1001400001E0FFF7DCFF7B685A1E7A60002BF8D1D4
:10015000C046C046BD4602B080BD80B584B000AF89
:1001600078605A4B5A4A5A600B23FB1800221A70C7
:10017000564B574A9A60554B05221A6012E0534B72
:100180001A6880235B02134005D00B217B181A7874
:100190007B1801321A700B23FB181B780A2B01D92C
:1001A00000238EE0A023DB051A6980235B00134047
:1001B000E5D1464B00221A60444B454A5A600B2356
:1001C000FB1800221A70414B414A9A603F4B0522AE
:1001D0001A6012E03D4B1A6880235B02134005D081
:1001E0000B217B181A787B1801321A700B23FB182D
:1001F0001B780A2B01D9002363E0A023DB051A69D1
:1002000080235B001340E5D0304B00221A602F4B57
:100210002F4A5A600B23FB1800221A702B4B2C4AD2
:100220009A602A4B05221A600023FB6037E0274BB7
:100230001A6880235B02134005D00B217B181A78C3
:100240007B1801321A700B23FB181B780A2B01D97B
:10025000002336E0A023DB051A6980235B001340EE
:10026000E5D112E0194B1A6880235B02134005D0D8
:100270000B217B181A787B1801321A700B23FB189C
:100280001B780A2B01D900231BE0A023DB051A6988
:1002900080235B001340E5D0FB680133FB60FA6804
:1002A0007B689A42D6DB094B00221A600B23FB18AD
:1002B0001B781B061A00054B9B68D31A044A944608
:1002C00063441800BD4604B080BDC04610E000E0A5
:1002D000FFFFFF0080B500AF3D4BDA6A3C4B0121C8
:1002E0000A43DA62A023DB051B68032293431A004A
:1002F000A023DB0501210A431A60A023DB055A680D
:10030000A023DB0501218A435A60A023DB051B687B
:100310000C2293431A00A023DB0504210A431A6030
:10032000A023DB055A68A023DB0502218A435A601B
:10033000A023DB051B68302293431A00A023DB05B2
:1003400010210A431A60A023DB055A68A023DB05AD
:1003500004218A435A60A023DB051B68C022934313
:100360001A00A023DB0540210A431A60A023DB0505
:100370005A68A023DB0508218A435A60A023DB05C5
:100380001B68144A1A40A023DB05802149000A4358
:100390001A60A023DB055A68A023DB0510218A43DD
:1003A0005A60A023DB051B680B4A1A40A023DB051B
:1003B0008021C9000A431A60A023DB055A68A023E4
:1003C000DB0520218A435A60C046BD4680BDC04639
:1003D00000100240FFFCFFFFFFF3FFFF80B582B07B
:1003E00000AF0200FB1D1A70FB1D1B78190010489E
:1003F00000F036FF030019000E4800F031FF030043
:100400005A1E0D4B5A600C4B00229A600A4B052273
:100410001A60C046084B1A6880235B021340F9D06B
:10042000054B00221A60C046BD4602B080BDC046E2
:1004300040420F000048E80110E000E080B500AF46
:10044000A023DB055A69A023DB0502210A435A6178
:100450002820FFF7C3FFA023DB055A69A023DB0593
:1004600002218A435A61C046BD4680BD80B582B034
:1004700000AF0200FB1D1A70FB1D1B785BB2002B46
:1004800008DAA023DB055A69A023DB0520210A43F3
:100490005A6107E0A023DB055A69A023DB05202170
:1004A0008A435A61FB1D1B784022134008D0A023C9
:1004B000DB055A69A023DB0510210A435A6107E0D6
:1004C000A023DB055A69A023DB0510218A435A616A
:1004D000FB1D1B782022134008D0A023DB055A699E
:1004E000A023DB0508210A435A6107E0A023DB05AE
:1004F0005A69A023DB0508218A435A61FB1D1B783A
:100500001022134008D0A023DB055A69A023DB0585
:1005100004210A435A6107E0A023DB055A69A0239E
:10052000DB0504218A435A61FFF788FF2820FFF783
:1005300055FFFB1D1B780822134008D0A023DB05C4
:100540005A69A023DB0520210A435A6107E0A02352
:10055000DB055A69A023DB0520218A435A61FB1D74
:100560001B780422134008D0A023DB055A69A0237E
:10057000DB0510210A435A6107E0A023DB055A6915
:10058000A023DB0510218A435A61FB1D1B78022240
:10059000134008D0A023DB055A69A023DB050821FE
:1005A0000A435A6107E0A023DB055A69A023DB0553
:1005B00008218A435A61FB1D1B780122134008D091
:1005C000A023DB055A69A023DB0504210A435A61F5
:1005D00007E0A023DB055A69A023DB0504218A4339
:1005E0005A61FFF72BFFC046BD4602B080BD80B503
:1005F00082B000AF0200FB1D1A70A023DB055A6910
:10060000A023DB0501210A435A61FB1D1B7818005A
:10061000FFF72CFF0220FFF78FFDC046BD4602B05A
:1006200080BD80B582B000AF0200FB1D1A70A02310
:10063000DB055A69A023DB0501218A435A61FB1DB2
:100640001B781800FFF712FF0520FFF775FDC04665
:10065000BD4602B080BD80B500AFA023DB055A695E
:10066000A023DB0502218A435A611420FFF764FDB1
:100670003320FFF7D6FF3320FFF7D3FF3220FFF7F9
:10068000D0FF2820FFF7CDFF0C20FFF7CAFF012085
:10069000FFF7C7FF1420FFF74FFDC046BD4680BDE2
:1006A00080B584B000AF786008001100FB1C021C0C
:1006B0001A70BB1C0A1C1A70FB1C1B78022B01D180
:1006C000C02300E080231800FFF7ABFF0520FFF7F1
:1006D00033FD0023FB6009E0FB687A68D3181B78C0
:1006E0001800FFF784FFFB680133FB60FB687A6842
:1006F000D3181B78002BEFD1BB1C1B78002B09D023
:1007000005E02020FFF773FFFB680133FB60FB6807
:100710000F2BF6DDC046BD4604B080BD80B58AB063
:1007200000AFFFF7D7FDFFF796FF424BDA6A414B68
:1007300001210A43DA62A023DB051A68A023DB0546
:100740003D490A401A60A023DB05DA68A023DB05D7
:10075000802149020A43DA60A023DB05DA68A0237E
:10076000DB0536490A40DA60FA235B001800FFF720
:10077000E3FC334B180002F03FFC324B0122012115
:100780001800FFF78DFF304B012202211800FFF700
:1007900087FF0120FFF7E1FC03007B627B6A002BEF
:1007A00034DD786A01F09CFB0022284B01F096F8BA
:1007B00002000B001000190001F008FC031C3B6252
:1007C000396AFE20800500F037FE031CFB612049DA
:1007D000F86900F043FF031CBB61B86901F0AEFB90
:1007E00002000B001B49080002F0A0FBB86901F0F1
:1007F000A5FB02000B001849381D02F023FC3B1D2D
:10080000012202211800FFF74BFF09E0134B1800EB
:1008100002F0F2FB124B012202211800FFF740FF09
:10082000104B1B689B68180002F010FAC820FFF7F5
:1008300083FCAEE700100240FFFFFCFFFFFFFDFF5F
:100840003C7200089C720008AC72000880847E41F3
:1008500000007042BC720008C8720008D072000824
:10086000F07200081000002080B582B000AF164B77
:100870007B60164B3B6007E07A68131D7B603B682A
:10088000191D396012681A603A68114B9A42F3D305
:1008900004E03B681A1D3A6000221A603A680D4B6A
:1008A0009A42F6D30C4B3B6004E03B681A1D3A6059
:1008B0001B6898473A68094B9A42F6D3C046C0462F
:1008C000BD4602B080BDC046CC77000800000020C5
:1008D000CC010020CC030020CC770008CC770008A6
:1008E00080B500AF3B4B1A683A4B01210A431A60AE
:1008F000C046384B1B6804221340FAD0354B012206
:10090000DA60C046334BDB680C221340042BF9D16C
:10091000314B1A68304B02210A431A602E4B1A6879
:100920002D4B01210A431A602A4B9A6B294B8021D7
:1009300049050A439A63294B802212011A60C04676
:10094000264B5B6810221340FAD1224BDA68214B08
:1009500023490A40DA601F4BDA681E4B8821C9031D
:100960000A43DA601B4A1B4BD268DA60194A194BFA
:10097000D268DA60174A174BD268DA60154B1A68EA
:10098000144B18490A401A60124B1A68114B802107
:1009900049040A431A60C0460E4B1A6880239B0420
:1009A0001340F9D00B4BDA680A4B03218A43DA6013
:1009B000084BDA68074B03210A43DA60C046054B4F
:1009C000DB680C2213400C2BF9D1C046C046BD4653
:1009D00080BDC04600100240002002400070004070
:1009E000FFFF02FFFFFFFFFE80B500AF024B1800C4
:1009F00000F008FAFEE7C0462073000880B500AF9B
:100A0000024B180000F0FEF9FEE7C04650730008E4
:100A100090B585B000AF78603960184B1B68002B2B
:100A200002D101235B4224E00023FB600AE0FB6863
:100A30005A1CFA603A68D418114B180000F0ADF94E
:100A4000030023707B68013B1A00FB68934205D2C8
:100A50000B4B180000F0CCF9031EE8D1FB68002B0B
:100A600006D03A68FB68D31800221A70FB6800E0D1
:100A700000231800BD4605B090BDC04664020020AA
:100A8000CC01002080B584B000AF78603960224B83
:100A90001B68002B02D101235B4238E07B683F2BAF
:100AA0000BDCC0461D4B180000F0A2F903004022E9
:100AB000D21A7B689A42F5D302E002235B4226E019
:100AC0000023FB600BE03A68FB68D3181A78134BDD
:100AD0001100180000F030F9FB680133FB607B68FF
:100AE000FA689A42EFD30E4B1B68082213400DD1CF
:100AF0000B4B1A680A4B08210A431A60074B18006F
:100B000000F04BF903001A00054B9A62002318000D
:100B1000BD4604B080BDC04664020020180200201B
:100B20000038014080B584B000AF786072B6C0462E
:100B3000454B00229A64444B9A6C434B5A64424B97
:100B40005A6C414B1A64414B00229A643F4B9A6C99
:100B50003E4B5A643D4B5A6C3C4B1A643C4B012251
:100B60001A603C4B00221A603B4BDA6A3A4B012177
:100B70000A43DA62394BFB607968F86800F070FB71
:100B80000300FB60A023DB059A68A023DB0580211E
:100B9000C9020A439A60A023DB055A68A023DB053B
:100BA0002F490A405A60A023DB051B682D4A1A40D2
:100BB000A023DB05802109030A431A60A023DB057B
:100BC0005A6AA023DB0540210A435A62A023DB05B1
:100BD0001B68254A1A40A023DB05802189030A43AC
:100BE0001A60A023DB055A6AA023DB058021C90017
:100BF0000A435A62184B5A6B174B8021C9010A43AA
:100C00005A631A4B1A68194B6C210A431A60174B26
:100C100000225A60154B00229A60144BFA68DA6081
:100C2000124B1A68114B01210A431A60104B1A68C3
:100C30000F4B802109050A431A6062B6C046C046C0
:100C4000BD4604B080BDC046CC0100201802002083
:100C50006402002068020020001002400048E80101
:100C6000FFFDFFFFFFFFF3FFFFFFCFFF0038014055
:100C700000E100E080B500AF084BDB698022134043
:100C800001D000F025F8054BDB692022134001D08C
:100C900000F006F8C046BD4680BDC04600380140A1
:100CA00080B500AF074B5B6ADAB2074B1100180042
:100CB00000F042F8031E02D0044B01221A60C04625
:100CC000BD4680BD00380140CC01002068020020F4
:100CD00080B500AF164B180000F08AF8031E08D04C
:100CE000134B180000F059F803001A00114B9A62D8
:100CF0001BE0104B1A680F4B08218A431A600D4BFA
:100D0000DB694022134005D00A4B1A6A094B402187
:100D10000A431A62074BDB698022134005D0054B5A
:100D20009A69044B10210A439A61C046BD4680BDB2
:100D3000180200200038014080B582B000AF786012
:100D40000A00FB1C1A707B681A6C7B685B6C9A4209
:100D500005D17B689B6C002B01D0012319E072B692
:100D6000C0467B681B6C591C7A6811647A68F91C50
:100D70000978D1547B689B6C5A1C7B689A647B68A9
:100D80001B6C402B02D17B6800221A6462B6C046FD
:100D900000231800BD4602B080BD80B584B000AF0E
:100DA00078607B689B6C002B01D100231CE072B63D
:100DB000C0467B685B6C591C7A6851640F22BA1874
:100DC0007968CB5C13707B685B6C402B02D17B68CD
:100DD00000225A647B689B6C5A1E7B689A6462B6D8
:100DE000C0460F23FB181B781800BD4604B080BD19
:100DF00080B582B000AF78607B689B6C1800BD4600
:100E000002B080BD80B582B000AF78600B4B1B682C
:100E1000002B09D101235B420BE07B685A1C7A60EE
:100E200019000120FFF72EFE7B681B78002BF4D100
:100E300000231800BD4602B080BDC04664020020F9
:100E400080B582B000AF0200FB1D1A70FB1D1900B7
:100E50000120FFF717FEC046BD4602B080BD80B539
:100E600000AF044B1800FFF798FF03001800BD46C1
:100E700080BDC046CC010020B0B584B000AF786022
:100E800039601E4B1B68002B02D101235B4231E00D
:100E90000023FB600B23FB1800221A7017E0C046EA
:100EA000174B1800FFF7A4FF031EF9D00B257C1980
:100EB000134B1800FFF771FF03002370FB685A1CE7
:100EC000FA601A007B689B187A1912781A703B68CE
:100ED000013BFA689A4204DA0B23FB181B780D2BAE
:100EE000DDD1FB68002B04DDFB687A68D318002293
:100EF0001A70FB681800BD4604B0B0BD6402002043
:100F0000CC01002090B583B000AFFC1DFFF7A7FF18
:100F100003002370FB1D1B781800FFF791FFFB1DDA
:100F20001B781800BD4603B090BDB0B584B000AFCB
:100F300078603960214B1B68002B02D101235B4292
:100F400037E00023FB600B23FB1800221A701DE022
:100F5000C0461B4B1800FFF74BFF031EF9D00B25B3
:100F60007C19174B1800FFF718FF030023702C00A3
:100F70003B191B781800FFF763FFFB685A1CFA60E7
:100F80001A007B689B183A1912781A703B68013B6B
:100F9000FA689A4204DA0B23FB181B780D2BD7D181
:100FA000FB68002B04DDFB687A68D31800221A70F6
:100FB000FB681800BD4604B0B0BDC0466402002006
:100FC000CC01002080B582B000AF7860FEE780B52C
:100FD00082B000AF786001235B421800BD4602B0CA
:100FE00080BD80B584B000AFF860B9607A60044B12
:100FF0000C221A6001235B421800BD4604B080BD7C
:101000007802002080B500AF034B0B221A60012349
:101010005B421800BD4680BD7802002080B582B0DA
:1010200000AF786039603B68802292015A600023EB
:101030001800BD4602B080BD80B500AF0123180086
:10104000BD4680BD80B582B000AF78603960044B8A
:1010500016221A6001235B421800BD4602B080BD13
:101060007802002080B582B000AF78603960044B10
:101070001F221A6001235B421800BD4602B080BDEA
:101080007802002080B584B000AFF860B9607A6063
:1010900000231800BD4604B080BD80B582B000AF0B
:1010A000786039603B68802292015A600023180002
:1010B000BD4602B080BD80B582B000AF786001232C
:1010C0005B421800BD4602B080BD80B582B000AF63
:1010D0007860044B02221A6001235B421800BD466F
:1010E00002B080BD7802002080B582B000AF786089
:1010F000044B0A221A6001235B421800BD4602B06D
:1011000080BDC0467802002080B582B000AF786014
:101110007B68022B01D8012303E0044B09221A60EB
:1011200000231800BD4602B080BDC04678020020F2
:1011300080B586B000AF7860124B7B61124B3B618B
:10114000124B1B68002B02D1104B7A691A600F4BAF
:101150001B68FB600D4B1A687B68D3183A699A428A
:1011600005D20B4B0C221A6001235B4206E0074BB1
:101170001A687B68D218054B1A60FB681800BD46D8
:1011800006B080BDCC0300200010002074020020B7
:101190007802002080B588B000AFF860B9607A604E
:1011A0000023BB61FB68002B22D10023FB611AE006
:1011B000FFF755FE03001A0017217B181A70BB6851
:1011C0005A1CBA607A181278D2B21A70BB6901330D
:1011D000BB617B181B78DBB20A2B01D1BB690EE027
:1011E000FB690133FB61FA697B689A42E0DB05E049
:1011F000054B09221A6001235B4200E0BB6918001D
:10120000BD4608B080BDC0467802002080B586B0DB
:1012100000AFF860B9607A60FB68013B012B11D820
:1012200000237B6109E0BB685A1CBA601B78180078
:10123000FFF706FE7B6901337B617A697B689A421E
:10124000F1DB05E0054B09221A6001235B4200E057
:101250007B681800BD4606B080BDC04678020020FD
:1012600003460B437FD4002243088B4274D3030907
:101270008B425FD3030A8B4244D3030B8B4228D3A8
:10128000030C8B420DD3FF22090212BA030C8B42CE
:1012900002D31212090265D0030B8B4219D300E06E
:1012A000090AC30B8B4201D3CB03C01A5241830BF3
:1012B0008B4201D38B03C01A5241430B8B4201D3A3
:1012C0004B03C01A5241030B8B4201D30B03C01ACC
:1012D0005241C30A8B4201D3CB02C01A5241830A46
:1012E0008B4201D38B02C01A5241430A8B4201D375
:1012F0004B02C01A5241030A8B4201D30B02C01A9F
:101300005241CDD2C3098B4201D3CB01C01A524105
:1013100083098B4201D38B01C01A524143098B428E
:1013200001D34B01C01A524103098B4201D30B0177
:10133000C01A5241C3088B4201D3CB00C01A52419C
:1013400083088B4201D38B00C01A524143088B4261
:1013500001D34B00C01A5241411A00D201465241FA
:10136000104670475DE0CA0F00D04942031000D319
:101370004042534000229C4603098B422DD3030A6E
:101380008B4212D3FC22890112BA030A8B420CD37E
:10139000890192118B4208D3890192118B4204D3A7
:1013A00089013AD0921100E08909C3098B4201D327
:1013B000CB01C01A524183098B4201D38B01C01A61
:1013C000524143098B4201D34B01C01A52410309D8
:1013D0008B4201D30B01C01A5241C3088B4201D387
:1013E000CB00C01A524183088B4201D38B00C01A34
:1013F0005241D9D243088B4201D34B00C01A52410B
:10140000411A00D20146634652415B10104601D397
:101410004042002B00D54942704763465B1000D321
:10142000404201B5002000F005F802BD0029F8D0C7
:1014300016E770477047C046F0B546464F46D64659
:101440004502C0B5C30F470098460E1C6D0A3F0EFB
:1014500057D0FF2F21D08023ED00DB041D43002354
:1014600099469A467F3F74027300640A1B0EF60F7A
:10147000002B20D0FF2B4CD080220020E400D2048F
:1014800014437F3B4246FF1A4B4672400F2B00D954
:10149000ACE06F499B00CB589F46002D5BD10823E1
:1014A0009946063B74029A467300FF27640A1B0E96
:1014B000F60F002BDED1002C30D1012342464946E5
:1014C000724019430E2904D86248890041588F465A
:1014D0004246FF200024C0052043D2071043E0BC51
:1014E000BA46B146A846F0BD5346022BF0D0032BB6
:1014F00000D1A3E042462C00012B35D1002000246E
:10150000E9E7002D1BD104239946033B00279A46A7
:10151000A9E7002C0CD10223FF3FCFE7200000F009
:1015200065FE431F9C4076235B421B1A0020A9E7FF
:1015300003234A461A4391460320FC33A2E72800BE
:1015400000F054FE7627431F9D4000237F429946BA
:101550009A463F1A87E70C239946093BFF279A468C
:1015600081E703286CD0320038007F30002825DD69
:10157000630704D00F232340042B00D0043423013D
:1015800003D53800344B80301C40FE28A1DCA40178
:10159000640AC0B29FE780240022FF20E4039AE798
:1015A0008023DB031D4201D01C424BD08024E40386
:1015B0002C4364024246FF20640A8CE701231B1A75
:1015C0001B2B9BDC21009E37D940BC400B00611EC9
:1015D0008C412343590704D00F211940042900D01E
:1015E0000433590126D50120002474E76D01600100
:1015F000854213D21B230024013F012629006400E9
:101600006D00002901DBA84201D82D1A3443013BAB
:10161000002BF3D16B1E9D412C43A5E71A23012417
:101620002D1AEAE7981E43425841404232000024F6
:10163000C0B250E79B0100205C0A4CE746462C00F4
:101640008023DB031C4364023200FF20640A42E76C
:1016500074730008B4730008FFFFFFF7F0B54F463E
:101660004646D6464502C0B546000F1C6D0A360EEA
:10167000C40F002E00D1C3E0FF2E77D08023ED00F1
:10168000DB041D43002399469A467F3E7B025B0A9A
:1016900098467B001B0EFF0F002B77D0FF2B00D14D
:1016A00094E042468021D200C904114388460021BB
:1016B0007F3BF6184B46721C0A2B73DC4B467C4072
:1016C000022B00DCA7E0484601238340A620C0008F
:1016D000034267D190208000034200D0ECE0B9388B
:1016E000FF38184200D0DAE041460904090C4346AD
:1016F0000F00280C2D041B0C2D0C6F4341435D4340
:1017000058436D183B0C5B19994203D9802149025B
:101710008C4660443F0419043F0CC9198D016F1EAB
:10172000BD411B0C890E1B180D439B011D431B0162
:1017300000D4C6E0012369081D400D4310007F302E
:10174000002800DC94E06B0704D00F232B40042B0F
:1017500000D004352B0103D5803210005E4B1D40B4
:10176000FE2855DCAB015B0AC0B226E0002D00D09C
:1017700078E008239946063B9A467B025B0A984626
:101780007B00FF261B0EFF0F002B87D14346002B4B
:1017900056D14A4601331A4391464B460121721CE9
:1017A0000A2B8BDD5346022B32D0032B00D17CE079
:1017B0005346012BC2D100200023C0051843E40783
:1017C0002043E0BCBA46B146A846F0BD33004246CD
:1017D000FF33002A3FD0032249461143721C894639
:1017E000FF320A2973DD0F295DD18023DB031D42FF
:1017F0005BD042461A4258D13C00FF201343DCE73D
:10180000002D11D104239946033B00269A463DE75B
:10181000FF200023D1E7013B012B00D964E7022917
:10182000F6D045468A46C3E7280000F0DFFC76265E
:10183000431F9D400023764299469A46361A25E773
:10184000404600F0D3FC4246431F9A40361A904669
:101850000021763E2EE749460232114389461E009A
:10186000022127E70C239946093BFF269A460DE7FC
:1018700001231B1A1B2B9EDC9E3229009540D94068
:101880006A1E95410D436B0704D00F232B40042B98
:1018900000D004356B0116D5012000238DE73C00F4
:1018A00045468A467EE73C0045468023DB032B43C2
:1018B0005B02FF205B0A80E780230024FF20DB031C
:1018C0007BE732003AE7AB0100205B0A75E71E00B8
:1018D00003217C40F7E6C046FFFFFFF7F0B5DE4688
:1018E000454657464E46E0B587B0009201930B033C
:1018F0001B0B9B46CA0F4B00040080465B0D0292F7
:1019000000D189E08A4A934238D05946420FC90033
:101910000A43802109041143C2009046854A894642
:1019200092469A44002300240393009E019F3B03A8
:101930001B0B9B467B0030005B0DFD0F002B00D185
:101940009EE07B4A934200D18CE05946720FC90059
:101950000A438021090411438B467649F2008C46E4
:1019600051466344CB1A9A460021029E6E400F2CCA
:1019700000D9EFE0704BA4001B599F465A46024322
:10198000914600D09DE09A46022390460824039396
:10199000CBE72E00002200249046654B1B05234315
:1019A000F60733434046190007B0F0BCBB46B246C9
:1019B000A946A046F0BD0022002300249046EDE792
:1019C000CB464246029D03990229E2D0032900D169
:1019D00043E22E000129EED0584B5344002B00DC8B
:1019E00093E1510700D04AE25946C90106D559464C
:1019F000534B194080238B46DB00534451498B42A3
:101A0000C8DC5946D208490711435A465B055402BF
:101A10008846240B5B0DC1E75B460343994661D0C2
:101A20005B46002B00D1C2E1584600F0DFFB0B23E0
:101A30005B429C460200844466461D239B1B260095
:101A400011005846DE400839884033000343994668
:101A500023008B4098463C4B00249B1A9A46002357
:101A6000039362E75A46009B1A43384B9C46E24474
:101A7000002A32D102231C43002302219B4674E733
:101A80005A46009B1A4322D05B46002B00D1A0E1AE
:101A9000584600F0ABFB020003000B3A1D27009EE6
:101AA000BA1A19005846D640083988403200024315
:101AB0009346009A8A40264953448A4600219A4414
:101AC00053E79A460323D9460C2403932DE70123B9
:101AD0001C43002301219B4647E7032332000321D7
:101AE0001C4342E7002398469A460133042403939B
:101AF0001BE700238024984600260D4B24034DE766
:101B000080244B462403234209D05B46234206D15E
:101B10001C4324032E009046054B240B3EE78024F3
:101B20004B4624031C432403029E014B240B35E740
:101B3000FF07000001FCFFFFF0730008FF03000037
:101B4000FFFFFFFEFE0700000DFCFFFF01F8FFFF97
:101B5000F3030000CB4500D220E100D11BE10123BB
:101B60005B429C46444648460027E2445B46150ECD
:101B70001B021D43190C2B04120200951D0C9146EB
:101B80000291039500F02EFB02006A430B04210C26
:101B9000804619438A420ED9009D0123AC465B4220
:101BA00061449C46E0448D4205D88A4203D9AC4644
:101BB000831E98466144881A029900F013FB039A29
:101BC000240442430904240C03000C43A24206D916
:101BD0000099013B8C466444A14200D80DE1A01A53
:101BE000424612041A4393464B4659461B0C1D00AD
:101BF00004930B0449460904090C0C001B0C5C43BC
:101C0000120C6B43884651436A43250CAC465B1863
:101C10006344994203D9802149028C466244190CDD
:101C200024041B04240C8A181C19904200D29EE044
:101C300000D199E03C1BA742BF41009D801A7F4222
:101C4000C01B854200D10CE1029900F0CBFA039A47
:101C50000B044243210C070019438A4208D9AC46C1
:101C60006144013F8D4203D88A4201D9871E6144F5
:101C7000881A029900F0B6FA039A24044243090430
:101C8000240C03000C43A24209D90099013B8C4665
:101C90006444A14203D8A24201D9831E6444414650
:101CA000A41A3A041A43049D13041B0C59434746D3
:101CB0006B439C46100C47430B0CBC446344684385
:101CC0009F4203D980256D02AC4660441F0C090475
:101CD0001B04090C3F185B18BC4206D302D0012339
:101CE0001A4379E6002B00D176E60098511E84460F
:101CF0006444844200D2A8E0BC4200D2D6E000D1C5
:101D0000E0E00A00EBE7012252420121C91A38291A
:101D100000DD50E61F2976DD1F204042C31A5846D9
:101D2000D8400300202904D05846694951448840CE
:101D30000243511E8A411A4307231900002411400F
:101D400013420CD00F231340042B00D1BEE0111D11
:101D500091429B410A005B4259075B021C0BD2086F
:101D60000A439046002319E6A74200D362E75B4688
:101D7000009D013B4F4405934F459B41AC465B4260
:101D80006344C018854233D2824200D981E07DD0BD
:101D9000059B9B464EE7424500D9E0E64B46DC07F3
:101DA000580843465B081C434346DF07DEE600F065
:101DB0001DFA15239C4684440200634620321C2BE6
:101DC00000DC39E623000838834099460023984612
:101DD00041E600F00BFA02000300153220331C2A02
:101DE00000DC5BE600990838814000228B4662E601
:101DF0008542CDD1B945CBD8C6E7A24200D8EEE6A0
:101E0000831E6444EBE633481400504482405B4632
:101E100017008340CC407A1E974123433B431A006E
:101E20005B46CB40510709D00F211140042905D052
:101E3000111D9142924152429B180A0019028BD502
:101E40000022012300249046A8E50A00BC4200D0ED
:101E500045E74B4500D042E7BEE580245B462403BE
:101E600056E61D4B1D4A5344924500DA4BE70121CB
:101E700049420A1D8A42894149428B44B4E50F21F7
:101E80001140042900D1AFE51100F2E7BC4200D8AF
:101E90007EE702235B429C4600994F444F459B419D
:101EA000E3448C465B426344C018C3E64946009D48
:101EB000480048458941AC46494261448146023A5E
:101EC0006418C3E79945F1D30A00C2E7002343E74A
:101ED0003E0400001E040000FF03000002FCFFFFA0
:101EE00070B5002816D0C317C5185D40C40F280070
:101EF00000F07CF9104B1B1A5B055B0D0A2814DC03
:101F000002002E00153296400B22121AD5402D03E6
:101F10002D0B03E000240023002500261B052B4386
:101F2000E40723433000190070BD0B3885402D03B2
:101F300000262D0BF2E7C0461E04000070B54202D9
:101F40004300C40FFE201B0E591C550A08420CD03A
:101F5000E02189008C466D07120B63441B05134377
:101F6000E40723432800190070BD002B14D1002D75
:101F70001BD0280000F03AF90A281CDC0B232A00A9
:101F80001B1ADA40030015339D400E4B12031B1A37
:101F90005B05120B5B0DE1E7002D09D0130B8022CE
:101FA00012031A436D07084BD8E700230022D5E738
:101FB0000022054BD2E703002A000B3B9A40002584
:101FC000E3E7C04689030000FF070000F0B54B00BF
:101FD0000F035B0D3C4C450F83B07F0A5E1C2F4303
:101FE00000900191CA0FC50026420BD037495C18FA
:101FF000FE2C13DDFF200023C0051843D207104339
:1020000003B0F0BD3D43002B01D10020F4E7002DCB
:10201000F0D08023DB03FF203B43EDE7002C14DDF1
:10202000009BFF009B01581E8341690F3B430B43FC
:10203000590746D00F21194004292AD004335901E9
:1020400027D501340023E0B2D6E72100173124DB85
:1020500080211E2009043943001B1F2820DD022691
:102060007642341B0E00E6403400202804D0184885
:102070008446634499400D432B00591E8B412343F2
:1020800059071AD00F2100241940042901D0002437
:1020900004339B015B0AE0B2AEE700200023ABE70C
:1020A0000C4C1C192B00A540C340A140681E854163
:1020B00029430B4300245907BCD19B0100205B0A34
:1020C0009AE7DB08E0B297E7FE07000080FCFFFF1D
:1020D000A2FCFFFF82FCFFFF002243088B4274D367
:1020E00003098B425FD3030A8B4244D3030B8B4219
:1020F00028D3030C8B420DD3FF22090212BA030C22
:102100008B4202D31212090265D0030B8B4219D302
:1021100000E0090AC30B8B4201D3CB03C01A524122
:10212000830B8B4201D38B03C01A5241430B8B426A
:1021300001D34B03C01A5241030B8B4201D30B0353
:10214000C01A5241C30A8B4201D3CB02C01A52417A
:10215000830A8B4201D38B02C01A5241430A8B423D
:1021600001D34B02C01A5241030A8B4201D30B0226
:10217000C01A5241CDD2C3098B4201D3CB01C01A40
:10218000524183098B4201D38B01C01A524143094A
:102190008B4201D34B01C01A524103098B4201D338
:1021A0000B01C01A5241C3088B4201D3CB00C01AA5
:1021B000524183088B4201D38B00C01A524143081D
:1021C0008B4201D34B00C01A5241411A00D2014642
:1021D000524110467047FFE701B50020FFF72AF98A
:1021E00002BDC0460029F7D076E770471C210123C5
:1021F0001B04984201D3000C10391B0A984201D3EA
:10220000000A08391B09984201D30009043902A2C7
:10221000105C40187047C04604030202010101012E
:102220000000000000000000F0B51F0000231600B1
:102230008BB09F4204DA802109067B181F002D23F2
:10224000129A149D1370202303229D43462D07D01C
:102250002B00453B59424B411099013ACB18109342
:1022600009AB049308AB0393139B00920293109B5A
:10227000320001933B0001F001F90400472D1BD10E
:10228000119BDB0711D5109BC31807930022002375
:102290003000390003F014FC002801D0079B09939B
:1022A0003022099B07998B4220D32000099B159A65
:1022B0001B1B13600BB0F0BD109BC3180793462D7A
:1022C000E4D10378302B0CD10022002330003900F8
:1022D00003F0F6FB002804D10123109A9B1A139AED
:1022E0001360139B079A1B68D318CEE7591C0991FA
:1022F0001A70D6E7F0B52B2305000C0085B00270EC
:10230000002901DA4C4202336B70092C2CDD02AB40
:10231000DE1D20000A21FFF789F837003031013E29
:10232000200031700A210194FEF79AFF019B0400FE
:10233000632BEEDCBA1EA81C0100130030341470AD
:1023400002AC07349C420AD80023944203D30933D9
:1023500002AA9B18DB1BC018401B05B0F0BD1C78FF
:1023600001330C700131EBE73023E418AB70281D0A
:10237000EC70F1E7F0B597B00D000A921C9C0B933E
:10238000099000F081FF036818000D9300F0E9FF49
:1023900000230F9014932B7E07220C932B680E932F
:1023A0000E992368C90545D59B1893431A00083236
:1023B000226001221E685F687B005B081193109603
:1023C000AE64EF6410981199A74B524204F0B4FE2A
:1023D000002831D1109811990122A34B524203F0E9
:1023E0007FFB002828D1002200233000390003F0B1
:1023F0006DFB002803D02B002D2243331A700C9B59
:102400009A4F472B00D89A4F032300240E9A2B6132
:1024100001339A432A600B9B2900009309980A9B79
:1024200015AA00F0E5F9013000D09EE001204042FD
:1024300017B0F0BD0733B8E732003B003000390079
:1024400004F07AFE00280BD0002F03DA2B002D2297
:1024500043331A700C9B874F472BD5D8864FD3E751
:1024600020220C9C6B6894435A1C46D107336B6046
:1024700080230E9ADB00134300222B60069214AADD
:1024800005920C9A0AA9049213AA039223225218C5
:10249000029201936B683200009309983B00FFF7AA
:1024A000C3FE139A0700472C2DD1D31C02DB6B68A7
:1024B0009A4247DD0C9B023BDBB20C932800139938
:1024C0000C9A013950301391FFF714FF149A04004D
:1024D00013182B61012A02DC2A68D20701D50133C7
:1024E0002B6123230AAA9B181B78002B00D192E7AB
:1024F0002B002D2243331A708DE7472CB8D1002BC7
:10250000B6D10133B3E70C9B652BD7D90C9B662B57
:102510001AD16B68002A09DD2A61002B02D12968D3
:10252000C9070BD501339B182B6107E0002B03D1A2
:1025300001222968114200D09A1C2A61139B0024B1
:10254000AB65CEE767230C931399149B994206DB86
:102550002B682961DB07F1D501312961EEE7012202
:102560000029E0DC9218521ADDE72A68530508D4E6
:102570002B693A000A9909980B9CA047013029D190
:1025800054E70C9B652B00D8DBE0A86CE96C0022BB
:10259000002303F095FA002833D00123374A0A9923
:1025A00009980B9CA047013000D13FE7149E139B74
:1025B000B34202DB2B68DB070CD50B9C0F9B0D9AFB
:1025C0000A990998A0470024013000D12EE7731E14
:1025D000A3420ADC2B689B0700D506E1159BE8683F
:1025E000984200DB24E7180022E72A0001230A9919
:1025F00009980B9F1A32B847013000D116E7013411
:10260000E5E7139B002B3BDC01231C4A0A99099840
:102610000B9CA047013000D108E7149E139B334365
:1026200002D12B68DB07D5D50F9B0D9A0A99099823
:102630000B9CA0470023013000D1F7E60C93139BBD
:102640000C9A5B42934201DC330092E72A0001239B
:102650000A9909980B9C1A32A047013000D1E5E68F
:102660000C9B0133EAE7C046FFFFEF7F347400089C
:10267000307400083C740008387400084074000886
:10268000149BAE6D0C939E4200DD1E00002E31DCCB
:10269000F3430024DB1733400E93AE6D0E9BF31A09
:1026A000A34230DC139B0C9A9A4238DC2B68DB0780
:1026B00035D4139C0C9B0C9A9B1B141B9C4200DD75
:1026C0001C00002C34DCE3430026DB171C40139B6A
:1026D0000C9AD31A1B1BB34200DC7BE72A000123B0
:1026E0000A9909980B9F1A32B847013000D19DE62C
:1026F0000136ECE733003A000A9909980B9CA04791
:102700000130C5D192E62A0001230A9909980B9E4F
:102710001A32B047013000D188E60134BDE70F9B83
:102720000D9A0A9909980B9CA0470130C1D17DE60A
:10273000BA1923000A9909980B9EB0470130C2D1FB
:1027400074E6149B0C93012B02DC01231A4239D04E
:1027500001233A000A9909980B9EB047013000D135
:1027600064E60F9B0D9A0A9909980B9EB0470130B9
:1027700000D15BE6A86CE96C0C9B0022013B0C933A
:10278000002303F09DF900281AD10C9B7A1C0A99AA
:1027900009980B9EB04701300ED147E62A0001236D
:1027A0000A9909980B9F1A32B847013000D13DE6CB
:1027B00001360C9B9E42F1DB2A0023005032D9E601
:1027C0000026F6E73A00E2E72A0001230A99099871
:1027D0000B9E1932B047013000D127E60134EB6877
:1027E000159A9B1AA342EFDCF8E60024F7E7C046EF
:1027F000F7B5160001938A680B690C0000909342AC
:1028000000DA13002200336043321278002A01D02C
:102810000133336023689B0602D53368023333608B
:102820002268062315001D401A4227D02300433397
:102830001B785A1E93412268920630D422000199D7
:102840000098089D4332A847013025D0062223680E
:1028500000251340042B05D13368E568ED1AEB43DE
:10286000DB171D40A3682269934201DD9B1AED1816
:102870000026B54220D1002010E00135E36832681F
:102880009B1AAB42D2DD2200012301990098089FD8
:102890001932B8470130F0D101204042FEBD30204E
:1028A000E1184331087021005A1C45310978A218FB
:1028B000433202331170C1E72200012301990098CD
:1028C000089F1A32B8470130E6D00136D1E7000040
:1028D000F0B58BB006920A0043320793059003923D
:1028E0000A7E0C00109B782A09D8622A0BD8002A8D
:1028F00000D1BAE07A490491582A00D18EE025002F
:1029000042352A7022E0100063381528F7D803F00A
:10291000BDF816001F00F6FFF6FFF6FFF6FF1F00DA
:10292000F6FFF6FFF6FFF6FF9F0036007E00F6FF8B
:10293000F6FFB000F6FF3600F6FFF6FF8200250036
:102940001A684235111D196013682B7001239EE02F
:1029500018680968021D0D060BD506681A60002E5E
:1029600003DA2D23039A764213705D4B0A270493F2
:1029700018E006681A604906F1D536B2EFE7086834
:10298000196840C9050602D4400600D5B6B21960E0
:10299000534B0A2704936F2A00D1023F23000022E1
:1029A00043331A706368A360002B06DB042122689E
:1029B000039D8A43226033430CD0039D30003900CD
:1029C000FFF710FC049B013D5B5C2B70330006009D
:1029D0009F42F3D9082F09D12368DB0706D5626827
:1029E00023699A4202DC3023013D2B70039B5B1B61
:1029F0002361079B210000930598069B09AAFFF716
:102A0000F7FE013048D1012040420BB0F0BD20223A
:102A100009680A4322607822324904912100453135
:102A20000A701968226840C9100602D4500600D501
:102A3000B6B21960D30702D5202313432360002EBA
:102A400001D01027AAE72022236893432360F8E7E8
:102A50001A680D68101D4969186013682E0601D5A3
:102A6000196002E06D06FBD519800023039D2361E8
:102A7000BFE71A68111D19601568002128006268F7
:102A800000F064FC002801D0401B60606368236193
:102A90000023039A1370ACE72A002369069905986E
:102AA000079DA8470130AED023689B0715D4099B2A
:102AB000E0689842A9DA1800A7E7220001230699E6
:102AC0000598079E1932B04701309CD00135E36864
:102AD000099A9B1AAB42F0DCE9E70025F7E7C0460C
:102AE0004274000853740008F7B50C228B5E050091
:102AF0000C001A0756D44A68002A02DC0A6C002A25
:102B00004EDDE76A002F4BD0002280202E682A601D
:102B10001A004001216A0240034233D0626DA3894A
:102B20005B0706D56368D21A636B002B01D0236C58
:102B3000D21A00232800E76A216AB847A289431CF9
:102B400006D129681D2946D8294BCB40DB0742D541
:102B50000023636023692360D20405D5431C02D19E
:102B60002B68002B00D16065616B2E60002917D0A7
:102B700023004433994202D0280001F06BFA00236D
:102B800063630DE001232800B8470200431CC6D14F
:102B90002B68002BC3D01D2B01D0162B1AD12E6011
:102BA00000201EE00E69002EFAD00F680E60BA1BDE
:102BB000019200229B0700D14A69A260019B002B71
:102BC000EEDDA36A32001F002800019B216AB8478E
:102BD000002807DCA2894023012013431BB2A381F4
:102BE0004042FEBD019B36181B1A0193E6E7C04622
:102BF000010040200B6970B505000C00002B02D1CC
:102C00000025280070BD002804D0036A002B01D1E4
:102C100000F030F90C22A35E002BF1D0626ED207D7
:102C200004D49B0502D4A06D00F089FB280021008C
:102C3000FFF75AFF636E0500DB07E2D4A3899B050B
:102C4000DFD4A06D00F081FBDBE70000010010B5D0
:102C5000002805D1054A0649064800F03FF910BD95
:102C6000054B1868FFF7C6FFF9E7C04604000020CF
:102C7000F52B00081400002010000020002310B5E0
:102C8000040003604360836081814366C281036105
:102C900043618361190008225C3000F0EBFA0B4BB2
:102CA000246263620A4BA3620A4BE3620A4B23630A
:102CB0000A4B9C4205D00A4B9C4202D0094B9C42D5
:102CC00003D12000583000F036FB10BD85300008DD
:102CD000B1300008E9300008153100087C020020FE
:102CE000E40200204C03002010B5034A03490448C5
:102CF00000F0F4F810BDC04604000020F52B0008D9
:102D00001400002041680B4B10B50400994201D01B
:102D1000FFF770FFA168084B994202D02000FFF72F
:102D200069FFE168054B994202D02000FFF762FF7E
:102D300010BDC0467C020020E40200204C030020AD
:102D40004B6E10B5DB0705D48B899B0502D4886DCB
:102D500000F0F5FA002010BD4B6E10B5DB0705D46E
:102D60008B899B0502D4886D00F0EFFA002010BD1E
:102D700010B5094B094A04211A6009480022FFF7DF
:102D80007DFF012209210748FFF778FF0222122167
:102D90000548FFF773FF10BDB4030020E92C0008BD
:102DA0007C020020E40200204C03002010B5024801
:102DB00000F0C5FA10BDC046BF03002010B50248A0
:102DC00000F0C3FA10BDC046BF030020F8B50700ED
:102DD000FFF7ECFF244B1B68002B01D1FFF7C8FF66
:102DE000224EB4687368013B0FD53568002D38D189
:102DF000D6213800490001F0ADF9041E26D130601B
:102E0000FFF7DCFF0C233B601CE00C22A55E002DCD
:102E10001AD12000164B5830E360656600F08BFA3B
:102E2000FFF7CCFF2000082229002560A56065601F
:102E300025616561A5615C3000F01CFA6563A563DE
:102E4000A564E5642000F8BD6834CCE70423D022F3
:102E5000056043600C302900A060520000F00AFABF
:102E600034603668BDE7C046B4030020040000208B
:102E70000100FFFF10B50400FFF798FF236A002B45
:102E800002D0FFF79BFF10BD044B2362044B1B686D
:102E9000002BF6D1FFF76CFFF3E7C046052D0008C5
:102EA000B403002010B5FFF781FF0020024A034958
:102EB00000F014F810BDC04604000020412D0008A9
:102EC00010B5044A0449002000F008F8FFF776FF27
:102ED00010BDC04604000020592D0008F7B51400AD
:102EE000002600900191A5686768013F04D5246819
:102EF000002CF8D13000FEBDAB89012B08D90E2281
:102F0000AB5E013304D029000098019B984706432B
:102F10006835EAE70EB403B503AB04CB81680193CF
:102F200002F09CF802B008BC03B018470FB407B514
:102F3000054904AB086804CB8168019302F08EF860
:102F400003B008BC04B0184710000020036A70B535
:102F500005000E008468002B01D1FFF78BFF636E24
:102F6000DB0705D4A3899B0502D4A06D00F0E7F927
:102F7000A3891B0702D52369002B1FD1210028003C
:102F800000F01AF9002819D001256D42636EDB07A5
:102F900005D4A3899B0502D4A06D00F0D6F92800C2
:102FA00070BD0136A360002B04DAA2699A4216DCD8
:102FB0000A2914D023685A1C22601970A36831783A
:102FC000013B0029EDD1A360002B0FDA220028007D
:102FD0000A3100F0A5F80130D6D00A25D6E7220044
:102FE000280000F09DF80130E8D1CDE723685A1C95
:102FF00022600A221A70F0E710B5034B010018682E
:10300000FFF7A4FF10BDC046100000200CB400B5AF
:103010009DB00291069109491EAB079104910849A0
:1030200004CB059102A9019301F0E2FE0022029B6C
:103030001A701DB008BC02B01847C046FFFFFF7FE2
:103040000802FFFF0EB400B50B499CB01DAB029007
:103050000690079104910948094904CB059100683D
:1030600002A9019301F0C4FE0022029B1A701CB059
:1030700008BC03B01847C046FFFFFF7F10000020C8
:103080000802FFFF70B50C000E25495F00F02AF919
:10309000002803DB636D1B18636570BDA389024ABA
:1030A0001340A381F9E7C046FFEFFFFF0020704700
:1030B000F8B51F008B8905000C001600DB0505D54F
:1030C0000E23C95E0022022300F0F8F8A389054A06
:1030D00028001340A38132000E23E15E3B0000F084
:1030E00015F9F8BDFFEFFFFF70B50C000E25495F25
:1030F00000F0E4F8A389421C03D1054A1340A381E0
:1031000070BD802252011343A3816065F8E7C04679
:10311000FFEFFFFF10B50E23C95E00F0BDF810BD34
:10312000F8B506000D001400002804D0036A002B37
:1031300001D1FFF79FFEA369A360A3891B0702D5F6
:103140002369002B09D12100300000F035F8002858
:1031500003D001256D422800F8BD23692068EFB235
:10316000C01A6369EDB2834205DC21003000FFF72D
:1031700041FD0028EDD1A3680130013BA360236825
:103180005A1C22601F706369834204D0A389DB0745
:10319000E1D50A2DDFD121003000FFF72BFD0028FB
:1031A000D9D0D6E710B5034B0A0001001868FFF725
:1031B000B7FF10BD100000202D4B70B5050018683A
:1031C0000C00002804D0036A002B01D1FFF752FE47
:1031D0000C22A35E1A0723D4DA0607D409222A6038
:1031E000402201201343A38140423AE05B0713D5FC
:1031F000616B002908D023004433994202D0280093
:1032000000F028FF002363632422A3899343A38152
:1032100000236360236923600823A2891343A381E9
:103220002369002B0BD1A0218022A3898900920061
:103230000B40934203D02100280002F0BBF90C227E
:10324000A35E01211A000A400B420BD00022A260AB
:1032500062695242A26100202269824201D11A06AB
:10326000BED470BD990700D46269A260F3E7C0467E
:103270001000002003008218934200D1704719709B
:103280000133F9E7F03070470048704750010020E3
:103290000048704750010020002370B5064D04001F
:1032A00008002B60FDF793FE431C03D12B68002B15
:1032B00000D0236070BDC0467802002070B50400C5
:1032C000080011001A000023054D2B60FDF7DAFEFF
:1032D000431C03D12B68002B00D0236070BDC04677
:1032E0007802002070B50400080011001A000023C5
:1032F000054D2B60FDF74EFF431C03D12B68002BBF
:1033000000D0236070BDC0467802002070B5040074
:10331000080011001A000023054D2B60FDF776FF11
:10332000431C03D12B68002B00D0236070BDC04626
:1033300078020020704770477047704770477047A9
:10334000012070470120704770477047C9B282184A
:10335000904201D10020704703788B42FBD00130AE
:10336000F6E70023C25C0133002AFBD1581E7047E8
:10337000F0B503690C6989B0039006910020A3425F
:1033800063DB0B00013C1433A50004935B19059328
:10339000039B143301935D19059B2F681E68380049
:1033A00001363100FEF798FE0290B74227D3049B06
:1033B00000279C46019E0797624608CA30689446DB
:1033C000029A99B251431B0C5343C9190A0C9B181A
:1033D00089B282B2521A07991F0C5218000C9BB284
:1033E0001114C31A5B18191492B21B041A43059BDB
:1033F000079104C66345DFD22B68002B2BD00699BA
:10340000039801F009FA00281EDB0026019D0499AB
:1034100001C92B6887B29AB2D21B9219000C1B0CFF
:103420001B1A10141B181E1492B21B041A43059B7E
:1034300004C58B42ECD2019AA300D3181A68002A63
:1034400014D0029B01330293029809B0F0BD2B689F
:10345000002B04D1013C019B043DAB42F7D3039BFD
:103460001C61CCE71A68002A04D1013C019A043B94
:103470009A42F7D3039B1C61E3E70000F0B5140008
:103480001D00C6699DB00A940B95259F0390002EE0
:103490000FD1102000F028FE039B021ED86104D13A
:1034A000EF21C74BC74802F055F9466086600660B9
:1034B000C660039BDB69196800290BD05A68012399
:1034C00093404A608B60039800F018FF0022039B32
:1034D000DB691A60002D1EDA01233B606B005B087C
:1034E0000B930B9FB84BB84A3B40934216D1B74B56
:1034F000249A13603B031B0B234301D100F07CFD96
:10350000B34B269A0893002A02D0B24B269A136036
:1035100008981DB0F0BD00233B60E2E70A9A0B9BC0
:1035200012921393129813990022002302F0C8FA02
:10353000061E0BD00123249A1360269B002B02D079
:10354000A54B269A1360A54B0893E1E71AAB0193AC
:103550001BAB00930398129A139B01F07FFA7A0039
:103560000590520D00D17BE0139B189619039C4BDC
:10357000090B0B439B495718129813991900002205
:10358000994B03F051FA994A994B02F081FF994AFD
:10359000994B02F0C3FA040038000D00FEF7A0FCBE
:1035A000964A974B02F074FF02000B00200029009E
:1035B00002F0B4FA04000D0003F0E0FD00220490D4
:1035C00000232000290002F081FA00280BD0049883
:1035D000FEF786FC2B00220002F072FA43425841AB
:1035E000049B1B1A049301231593049B162B10D8DC
:1035F00012981399049A834BD2009B181A685B683F
:1036000002F064FA002847D0049B013B0493002396
:10361000159300221A9B0692DB1B5A1E3ED50122EF
:10362000D31A069300230D93049B002B38DB049AD6
:103630000D9B944663440D93002314920F93229B99
:103640000124092B62D8052B02DD0024043B2293C0
:10365000229B981E032863D802F00EFA5456382B8A
:103660001B9B1A9EF618684BF218202A0FDD402388
:103670009B1A9F40654B3800F318DC40204303F051
:10368000B9FD0122624B771ECB18189276E72023F2
:1036900020009B1A9840F2E71590BAE70D92C3E715
:1036A000069B049A9B1A069353420F93002314938C
:1036B000C5E70123239A10939446049B63440E9319
:1036C00001330993002B08DC012306E0012310934A
:1036D000239B002B28DD0E930993039A0021D069C8
:1036E0000422150014359D4223D94160039800F04F
:1036F000C1FD089000281FD1B021464B3148089ADF
:10370000FF31D0E60023E2E70023D3E70023109443
:103710002293013B00220E93099313332392DCE79B
:1037200001231093023BF5E701231A000E9309933E
:10373000F4E701315200D4E7039B089ADB691A6071
:10374000099B0E2B00D9D6E0002C00D1D3E0049BBE
:10375000002B63DD0F21049A2A4B0A40D2009B18EC
:103760001E685F68049B02241D11DB050AD52A4BE5
:103770000D401A6A5B6A12981399FEF7AFF80A9027
:103780000B910134244B0C93002D08D10A980B990E
:1037900032003B00FEF7A2F80A900B9159E001239A
:1037A0001D4209D0E4180C9B30001A685B68390090
:1037B00002F06EFE06000F000C9B6D100833E2E76E
:1037C00071740008887400080000F07F0F27000063
:1037D0006D7400087074000841740008407400089B
:1037E0000000F03F01FCFFFF0000F83F61436F6302
:1037F000A787D23FB3C8608B288AC63FFB799F500A
:103800001344D33F00760008320400001204000085
:10381000000010FEE1740008D8750008049B022423
:10382000002B16D0129813990F225D422A40D54BD7
:10383000D2009B181A685B6802F02AFE0127002359
:103840000A900B91D04E2D11002D00D095E0002B49
:10385000A2D10A9E0B9F159B002B00D198E000225D
:1038600030003900C94B02F031F9002800D18FE057
:10387000099B002B00D18BE00E9B002B37DD049BB6
:103880000022013B0C933000C14B390002F000FED6
:103890000A900B910E9B013420001193FEF720FB40
:1038A0000A9A0B9B02F0F4FDBA4B002202F036F9A3
:1038B000B94B0600CF18119B002B6DD10A980B99BC
:1038C0000022B64B03F0B0F832003B0004000D00BC
:1038D00002F010F9002800D0B3E2802109067B181D
:1038E00032002000290002F0F1F8002828D1129BB4
:1038F000139C0A930B941B9B002B00DA74E1049A2F
:103900000E2A00DD70E19F4BD2009B185C681B689B
:1039100006930794239B002B00DBE7E0099B002B19
:1039200000DDE3E00CD10698079900229B4B02F0E2
:10393000AFFD0A9A0B9B02F0E7F8002800D183E262
:1039400000263700239B089CDB430C930497002739
:103950003100039800F0D2FC049B002B00D1BBE0A7
:10396000002F05D09F4203D03900039800F0C6FC19
:103970000499039800F0C2FCAEE03D4205D03268E5
:10398000736802F085FD3B0001346D1008365BE77B
:10399000049B0C93099B7FE7119A7A4B013AD20062
:1039A00010999B181A685B6800294CD000207C494C
:1039B000FDF794FF32003B0003F036F8089A06004A
:1039C00094460F00089B1693119B634411930A9829
:1039D0000B9903F0D3FB0500FEF782FA02000B00FF
:1039E0000A980B9903F020F8169B30355C1C1D706B
:1039F00032003B000A900B9102F068F800286BD16E
:103A00000A9A0B9B0020614903F00EF832003B003C
:103A100002F05CF8002800D0C6E0119BA34200D160
:103A200065E7002230003900594B02F031FD0022D9
:103A300006000F000A980B99554B02F029FD1694C9
:103A40000A900B91C3E73000390002F021FD089D78
:103A5000119A2B00944616901791634419930A9873
:103A60000B9903F08BFB0400FEF73AFA0B000200FF
:103A70000A980B9902F0D8FF3034199B2C7001354D
:103A800006000F00AB422AD116981799089B119C8B
:103A90009C460022424B644402F040F802000B00B6
:103AA0003000390002F026F8002800D07CE0169A99
:103AB000179B00203A4902F0B7FF02000B003000CC
:103AC000390002F003F8002800D110E72300013C80
:103AD0002278302AFAD01C000C9B049342E000228A
:103AE0002B4B02F0D5FC0A900B91B8E7099B089D7F
:103AF000013B5B190A9E0B9F0A93069A079B3000B5
:103B00003900FDF7EBFE03F039FB0990FEF7E8F909
:103B1000069A079B02F0BCFC02000B003000390043
:103B200002F082FF2B00099A013530321A700A9A8E
:103B30002C009A424BD102000B0001F0EFFF069AD5
:103B4000079B06000F0001F0D5FF00282AD1069A36
:103B5000079B3000390001F0B3FF002802D0099B19
:103B6000DD071FD40599039800F0C8FB00232370DC
:103B7000049B249A01331360269B002B00D1C7E4D9
:103B80001C60C5E400760008D87500080000F03F0E
:103B90000000244000001C400000C0FC0000144055
:103BA0000000E03F049B0C9323001C00013B1A78AB
:103BB000392A08D1089A9A42F7D10C9A0899013209
:103BC0000C9230220A701A7801321A7084E70022AF
:103BD000C44B02F05DFC0022002306000F0001F040
:103BE0006FFF002889D0BDE7109F0F9D069C002F16
:103BF00014D0229A012A00DDE2E0189A002A00D1AE
:103C0000D8E0B94A9B18069A0121D21806920D9A5B
:103C10000398D3180D9300F075FC0700002C0ED00C
:103C20000D9B002B0BDD0D9A2300944200DD130049
:103C3000069AE41AD21A06920D9AD31A0D930F9B84
:103C4000002B1FD0109B002B00D1D1E0002D10D0F5
:103C500039002A00039800F017FD059A01000700BB
:103C6000039800F067FC06000599039800F046FBF6
:103C700005960F9B5A1BAB4204D00599039800F0A0
:103C800003FD05900121039800F03CFC149B060005
:103C9000002B00D1BAE11A000100039800F0F4FCF7
:103CA000229B06000025012B16DC00250A9BAB4257
:103CB0000ED10B9B1B03AB420AD18C4B0B9A1342C8
:103CC00006D0069B0135013306930D9B01330D93FE
:103CD000149B0120002B08D0336903339B00F31899
:103CE000586800F0BFFB2023181A0D9B181802001B
:103CF0001F231A40184200D180E001339B1A042B85
:103D000078DD1C239B1A069AE418D21806920D9AA5
:103D1000D3180D93069B002B05DD1A000599039817
:103D200000F00EFD05900D9B002B05DD31001A0003
:103D3000039800F005FD0600159B002B60D03100B4
:103D4000059800F069FD00285ADA049B0A22013B1D
:103D50000C9305990023039800F0F4FA109B05904A
:103D6000002B00D159E1002339000A22039800F00A
:103D7000E9FA0E9B0700002B4CDC229B022B45DD51
:103D80000E9B002B00D0DDE531000522039800F0EA
:103D9000D9FA06000100059800F03EFD002800DC7D
:103DA000D0E5089B089A5C1C312313700C9B0133EF
:103DB0000C93CBE536231A9A0F9D9B1A069C22E79B
:103DC000099B5D1E0F9BAB4208DB5D1B099B002B13
:103DD000F4DA069B099A9C1A002314E70F9B149AA5
:103DE000EB1AD31814930F95069C0025099B0AE73C
:103DF0000F9A42E7042B8DD01C3384E71300FBE7B6
:103E0000049B0C93099B0E93002BB6DD109B002B9B
:103E100000D106E1002C05DD39002200039800F0F6
:103E20008FFC07000497002D20D07968039800F0DC
:103E300021FA041E0CD122002D4B2E482E49FFF7EB
:103E400032FB119E3700ACE7049B099E0C93F9E707
:103E500039003A690C31023292000C3001F070FCEA
:103E600001222100039800F06BFC0490089B0E9A3D
:103E70000693013B9B1801220F930A9B13400E935C
:103E800031000598FFF774FA390005000A9005988B
:103E900000F0C2FC049A0D903100039800F0D8FCA9
:103EA0000122C368040030350992002B04D10100BF
:103EB000059800F0B1FC09902100039800F01EFA6B
:103EC000069B229A5C1C099B13430E9A134315D13F
:103ED000392D2ED00D9B002B01DD0A9D3135069B1F
:103EE0001D7035E500002440330400000000F07F21
:103EF000E174000888740008EF0200000D9B002B9D
:103F000004DB229A13430E9A13431ED1099B002B04
:103F1000E5DD05990122039800F012FC31000590BF
:103F200000F07AFC002802DCD9D1EB07D7D5392D77
:103F3000D3D13923069A137023001C00013B1A7851
:103F4000392A50D001321A7002E5099B002B03DD9B
:103F5000392DEED00135C2E7069B069A1D700F9BE6
:103F600093422BD000230A220599039800F0EAF926
:103F7000049B05909F4209D1390000230A2203982F
:103F800000F0E0F907000490069479E73900002377
:103F90000A22039800F0D6F9002307000A220499A8
:103FA000039800F0CFF90490EEE70E9B0124002B5C
:103FB00000DD1C0004970027089B1C1905990122AD
:103FC000039800F0BDFB3100059000F025FC0028AF
:103FD000B2DC01D1ED07AFD423001C00013B1A78FD
:103FE000302AFAD0B4E4089A9A42A6D10C9B013345
:103FF0000C9331231370ABE4144B269A0893144BA3
:10400000002A01D0FFF782FAFFF782FA229B012BE8
:1040100000DC4AE60120149D67E60E9B002B00DCC5
:10402000ABE6002431000598FFF7A2F9089B303079
:1040300018550E9B01340500A342B6DD00230A2269
:104040000599039800F07EF90590EBE76474000889
:104050006C74000870B505000C1E10D0043C236879
:10406000002B00DAE418280000F0F4F81D4A136869
:10407000002B05D163601460280000F0F3F870BDD8
:10408000A34208D9206821188B42F3D119685B68D4
:1040900009182160EEE71A005B68002B01D0A342EB
:1040A000F9D911685018A0420BD12068091850188E
:1040B00011608342E0D118685B6841181160536059
:1040C000DAE7A04202D90C232B60D5E7206821183B
:1040D0008B4203D119685B680918216063605460E2
:1040E000CAE7C046C403002010B5034B010018689E
:1040F00000F030F810BDC0461000002010B5034B92
:1041000001001868FFF7A6FF10BDC0461000002090
:1041100070B50F4E0D0031680400002902D101F086
:10412000F3FA30602900200001F0EEFA431C03D1BD
:1041300001256D42280070BD0323C51C9D43A84284
:10414000F8D0291A200001F0DFFA0130F2D1EFE7B0
:10415000C0030020F7B50322CB1C934308330500AE
:104160001F000C2B34D20C27B94233D8280000F0A2
:1041700071F8374E33681C00002C2FD1390028000D
:10418000FFF7C6FF0400431C5FD134680094009B16
:10419000002B4AD1002C52D023682800E318009944
:1041A000019301F0B1FA019B834248D123682800B2
:1041B000FF1A3900FFF7ACFF013040D02368DB194C
:1041C000236033685A68002A33D1009B336019E0BA
:1041D000002BC9DA0C232B600020FEBD2168C91B0F
:1041E00020D40B290AD9E2192760A34204D13260F6
:1041F00063681160536005E05A60F9E76268A342A2
:104200000ED13260280000F02DF8200007220B307C
:10421000231D9043C21A9842DFD01B1AA350DCE73B
:104220005A60EFE723006468A6E7009C6368009388
:10423000ADE71A005B68A342FBD10023DAE70C2349
:1042400028002B6000F00EF8C6E70760DAE7C046EA
:10425000C403002010B50248FFF771F810BDC04636
:10426000BC03002010B50248FFF76FF810BDC04630
:10427000BC03002070B5C56906000C00002D0ED1EE
:104280001020FFF731FF021EF06104D16B21194BA2
:10429000194801F05FFA456085600560C560F56901
:1042A000EB68002B13D0F369A200DB689B18186839
:1042B000002818D101210D00A5406A1D3000920090
:1042C00001F06BFA00280CD0446085600DE02122DB
:1042D0000421300001F061FAF369E860DB68002B2B
:1042E000E1D1002070BD02681A6000230361C36041
:1042F000F8E7C04671740008F274000870B5C6692A
:1043000005000C00002E0ED11020FFF7EDFE021E5E
:10431000E86104D18F21094B094801F01BFA46607E
:1043200086600660C660002C07D0EB696268DB68B7
:1043300092009B181A6822601C6070BD717400089E
:10434000F2740008F7B50F0001900C001E00002069
:104350000D6914373B68013099B251431B0C53432C
:1043600089190E0C9B191E0C89B21B045B1808C717
:104370008542EFDC002E22D0A368AB4219DC6168D5
:1043800001980131FFF776FF071E05D13A00BA21E7
:104390000C4B0D4801F0DEF9210022690C3102328C
:1043A00092000C3001F0CCF921000198FFF7A6FF34
:1043B0003C002B1D9B00E31801355E602561200049
:1043C000FEBDC046E1740008F2740008F7B50700AE
:1043D00018000C000830092101931500FCF740FF7C
:1043E0000123002183420ADB3800FFF743FF011E4F
:1043F00008D10A00194B1A48D33101F0ABF95B0020
:104400000131EFE7089B436101230361092D18DDAA
:10441000230009331E000093641933780A22380000
:10442000303BFFF78FFF01360100A642F5D12C008B
:10443000009B083C1C192E00019B9E4204DB0800D7
:10444000FEBD09250A34F6E7631B9B5D0A2238008E
:10445000303BFFF777FF01360100EDE7E17400081C
:10446000F27400088022030052020020934201D21D
:104470001B04103080225204934201D208301B02E8
:1044800080225205934201D204301B018022D205C2
:10449000934201D202309B00002B03DB0130134218
:1044A00000D1202070470368010007221800104047
:1044B00013420DD0063A0020134205D102300342C8
:1044C00003D0D34010000B6070479B080B60FBE7E4
:1044D0009AB2002A01D110201B0CDAB2002A01D1B5
:1044E00008301B0A1A0701D104301B099A0701D1B1
:1044F00002309B08DA07E9D401305B08E6D12020BE
:10450000E2E7000010B50C000121FFF7B3FE002820
:1045100007D14621054C0200054B2000FF3101F078
:1045200019F901234461036110BDC046F27400080B
:10453000E1740008F0B514000A6923690D0089B020
:104540009A4202DB23000C001D0027692E69616876
:10455000BB190093A368BA19934200DA0131FFF73F
:1045600089FE8446002806D1B1216246444B454865
:10457000490001F0EFF80200BB1914329B00D31878
:104580000193002113000198834228D32300BF0028
:10459000143304931435DB19B6000293AB19079357
:1045A00004230593230002991533994205D30C1B6C
:1045B000153CA4080134A3000593079B9D4210D32A
:1045C000009B002B05DD019B043B01931B68002B26
:1045D00052D063466046009A1A6109B0F0BD02C32A
:1045E000D1E72C68A4B2002C1FD000231700049E32
:1045F000039308CE396806936B461B8B88B26343DE
:104600001B180398090C1B180698000C60434018EF
:10461000190C4118080C9BB209041943029B039022
:1046200002C7B342E5D8059BD0502C68240C20D09B
:10463000002110001368049E03913168076889B255
:1046400061433F0CC919039F9BB2C9190F041F4353
:10465000076080CE43683F0C67439BB2090CFB1890
:104660005B18190C039102990430B142E5D8059901
:10467000535004350432A0E7009B013B00939FE7B1
:10468000E1740008F2740008F7B503231500070071
:104690000E001A401D4208D02549013A9200525896
:1046A00000233100FFF74EFE0600AD103DD0FC693F
:1046B000002C0FD11020FFF717FD021EF86105D165
:1046C000B4211C4B1C48FF3101F044F84460846065
:1046D0000460C460FB699C680193002C08D1380019
:1046E0001649FFF70FFF019B040098600023036049
:1046F00001231D420AD0310022003800FFF71AFFC3
:10470000310001903800FFF7F9FD019E6D100CD0CB
:104710002068002807D1220021003800FFF70AFF97
:104720000023206003600400E2E73000FEBDC046C5
:10473000A475000871740008F2740008710200008A
:10474000F0B50C0016002369571185B0FB180193D2
:10475000013300934968A3680290009A934210DBEA
:104760000298FFF787FD0023010005001A001431AD
:1047700098420CD1EF212A00254B2648490000F031
:10478000E9FF01315B00E8E798000A500133BB42C2
:10479000FADBFB43DB171F40BF0023001F20C919B2
:1047A00037002269143392009A180740064229D034
:1047B0000130C01B03908C4600201E68BE4006439B
:1047C000604640C08446039E01CBF0409A42F4D834
:1047D000260015360423B24204D3131B153B9B0855
:1047E00001339B00C850002802D0019B0233009384
:1047F000009B0298013B21002B61FFF77FFD280001
:1048000005B0F0BD01CB01C19A42FBD8F0E7C0462C
:10481000E1740008F274000830B50B690469020005
:10482000E01A9C420FD114329B0014311400C918B5
:10483000D218043A043915680B689D4204D001204F
:104840009D4200D2023830BD9442F2D3FBE7000013
:10485000F0B50C0087B00090110020001700FFF7A2
:10486000DBFF051E10D101000098FFF703FD021EBB
:1048700004D1404B4048414900F06CFF01234561A1
:104880000361100007B0F0BD0026B04203DA230038
:104890003C001F00013661680098FFF7EBFC021E28
:1048A00003D1344B34483649E6E723691434009386
:1048B0009B00E318210001943C0002933B691434EF
:1048C0009B00E31803930300C6608C46002014335A
:1048D00004930593634620CBA9B20E009C4608CCF6
:1048E0002D0C99B2711A09181B0C0814EB1A1B181D
:1048F000181489B21B041943059B02C30593039B3B
:10490000A342E7D83900039C153104238C4204D319
:10491000E31B153B9B0801339B000199CD180499BB
:104920002E00CB181F0002998E4211D3029CE91E63
:1049300000208C4204D321000331491B89088800E0
:104940001B18043B1968002910D0009B136198E7DD
:10495000844602CE88B2604400140C0C04196144F1
:10496000201489B22404214302C7DCE700990139ED
:104970000091E6E7E1740008F274000837020000D5
:104980004502000010B500240C4B0D4A0B409B184B
:10499000A34206DC5B421A15132A05DC80231B03A5
:1049A00013411900200010BD143A01241E2A02DC14
:1049B00080242406D4400023F3E7C0460000F07FA3
:1049C0000000C0FCF7B50600036914369B00F3181D
:1049D0001D1F2C680F0020000193FFF743FD2022CC
:1049E000121A3A6003001C4A0A2815DC0B21270022
:1049F000091ACF403A438C4611000022AE4202D23F
:104A0000019A083A126815339C4063462700DA4041
:104A10001743380003B0F0BD0027AE4202D2019D1B
:104A2000083D2F680B2149428C469C440B2B10D02B
:104A3000614620238C405B1A3900D9400C43224345
:104A400011000022B54201D9043D2A686446A740FE
:104A5000DDE722431100DCE70000F03FF7B501215C
:104A600016001F00FFF706FC041E05D12200254B8F
:104A70002548264900F06EFE3B037D001B0B6D0DA3
:104A800002D08022520313430193002E25D06846A2
:104A90000096FFF708FD019B009900281BD02022FB
:104AA0001E00121A96403200C3400A43626101930D
:104AB000019EA661731E9E4101362661002D14D011
:104AC0003526134BED18089B2D181D60099B361ACF
:104AD0001E602000FEBD6161EAE701A8FFF7E3FC6C
:104AE000019B012663612030E7E70A4BC018089B51
:104AF0001860094BF3189B00E3185869FFF7B2FCE4
:104B00007601E3E7E1740008F27400080F03000087
:104B1000CDFBFFFFCEFBFFFFFFFFFF3FF0B587B0F0
:104B20000F0004A90600FFF74DFF00900191009BC4
:104B3000019C380005A902930394FFF743FF0D0081
:104B400002000B0030693969049E401A0599400142
:104B5000711A41180805002908DD019941180391CF
:104B600002980399FCF7BAFE07B0F0BD2B1AF7E7DD
:104B700010B50400172805DC074BC4001B19186882
:104B8000596810BD002005490022054B013C01F089
:104B90007FFC002CF8D1F4E7007600080000F03F1D
:104BA0000000244070B51400050001391369491153
:104BB0000131890014349B004118E318A3420DD839
:104BC000140011340025A34203D39B1A113B9B0808
:104BD0009D0000234019814203D870BD40CC40C5E0
:104BE000ECE708C0F7E70200006910B514324B117A
:104BF000984213DB0CDD1F2408002040214207D01F
:104C000099008C582100C140814001208C4204D180
:104C10009B00D318934203D8002010BD0300F7E790
:104C2000043B19680029F5D00120F6E7F0B58E683D
:104C300085B01F000C000B6802900392BE4230D872
:104C40000C21625E9021C9000A4228D0032021690C
:104C50005B1A0193636943430198DD0FED187B1CD8
:104C60001B186D10AB4200D91D00520528D5290034
:104C70000298FFF76FFA061E2CD0019A216900F006
:104C80005FFDA289184B1A4080231343A381019B27
:104C90002661F61826603E006561ED1AA560BE42E9
:104CA00000D93E0032000399206800F0C4FC0020C7
:104CB000A3689B1BA36023689B19236005B0F0BD0C
:104CC0002A00029800F0B2FD061EE0D12169029888
:104CD000FFF7C0F90C230120029A40421360A28919
:104CE00034331343A381E9E77FFBFFFFF0B513687B
:104CF00087B017000393936800220C0016000590FC
:104D0000029293420BD1002000237B6007B0F0BDDC
:104D1000039B1B680293039B5E6808330393A5689B
:104D20002368002EF4D0AE4232D30C21625E902173
:104D3000C9000A422FD0032021695B1A04936369DA
:104D40004343D80FC3185B100193049B01980133B0
:104D50009B19834200D90193520530D501990598DA
:104D6000FFF7F8F9051E34D0049A216900F0E8FC39
:104D7000A2891E4B1A4080231343A381049B256103
:104D8000ED1825603500019B049A63619B1AA360AE
:104D9000B54200D935002A000299206800F04BFC8A
:104DA000A3685B1BA36023685B192360029B9B19AC
:104DB0000293BB689B1BBB60A5D00026AFE7019A9E
:104DC000059800F033FD051ED8D121690598FFF73D
:104DD00041F90C23059A01201360A289343313434F
:104DE000A38100234042BB608EE7C0467FFBFFFFEC
:104DF000F0B5A1B003901D008B890F0016001B06B3
:104E000011D50B69002B0ED14021FFF7A3F93860B3
:104E10003861002805D10C23039A13600120404219
:104E2000CFE040237B61002308AC636120336376CD
:104E30001033A376079535002B78002B01D0252B56
:104E400048D1AB1B0593B5420BD032003900039813
:104E5000FFF7ECFE013000D1AEE06369059A9B18C4
:104E600063612B78002B00D1A6E00122002352427F
:104E7000626004A9543252186E1C2360E360A36080
:104E80001370A365544B0522180031780593FEF783
:104E90005DFA751C00281FD12268D30604D5532360
:104EA00004A95B1820211970130704D5532304A902
:104EB0005B182B21197033782A2B16D0350000216E
:104EC0000A20E3682A786E1C303A092A50D9002952
:104ED00011D117E00135AFE7059B2268C01A012305
:104EE000834013432E002360CCE7079B191D1B68EA
:104EF0000791002B01DB0B9304E05B42E36002238C
:104F0000134323602B782E2B0CD16B782A2B34D1B2
:104F1000079B02351A1D1B680792002B01DA01233B
:104F20005B4209932D4E032230002978FEF70EFADA
:104F3000002806D04023801B83402268013513439C
:104F400023602978062226486E1C2176FEF7FEF99A
:104F5000002838D0234B002B22D10722079B073390
:104F60009343083307936369049A9B18636162E76C
:104F70004343350001219B18A4E700230A201900B0
:104F8000013563602A786E1C303A092A03D9002B58
:104F9000C8D00991C6E74143350001238918F1E7DC
:104FA00007AA009221003A000F4B0398FDF7E2F99F
:104FB0000490049B0133D6D1BB890D985B0600D5C4
:104FC0002CE721B0F0BD07AA009221003A00064B61
:104FD0000398FDF77DFCEBE74C750008527500085F
:104FE00056750008752300082D4C0008936810B50D
:104FF000013B9360002B04DA9469A34207DB0A2982
:1050000005D01368581C10601970080010BDFEF719
:1050100087F80100F9E7F8B506000F001400D5186D
:10502000AC4201D1002007E021783A003000FFF7C0
:10503000DDFF0134431CF3D1F8BD002310B514008B
:1050400092689A4205D0220000F030F90022030055
:10505000A26000221800626010BD0000F0B5A1B08F
:105060000F0015001E000390002804D0036A002BD7
:1050700001D1FDF7FFFE7B6EDB0705D4BB899B05E5
:1050800002D4B86DFEF75BF9BB891B0702D53B69FB
:10509000002B13D139000398FEF78EF800280DD0AD
:1050A0007B6EDB0703D50120404221B0F0BDBB89F8
:1050B0009B05F8D4B86DFEF748F9F4E7002308AC77
:1050C0006361203363761033A37607962E0033781E
:1050D000002B01D0252B48D1731B0593AE420BD07A
:1050E0002A0039000398FFF796FF013000D1AEE0A7
:1050F0006369059A9B1863613378002B00D1A6E0A1
:10510000012200235242626004A954325218751CD5
:105110002360E360A3601370A365594B0522180058
:1051200029780593FEF712F96E1C00281FD122681A
:10513000D30604D5532304A95B1820211970130743
:1051400004D5532304A95B182B2119702B782A2B23
:1051500016D02E0000210A20E3683278751C303A00
:10516000092A50D9002911D117E00136AFE7059B74
:105170002268C01A01238340134335002360CCE723
:10518000079B191D1B680791002B01DB0B9304E0A3
:105190005B42E36002231343236033782E2B0CD150
:1051A00073782A2B34D1079B02361A1D1B6807928D
:1051B000002B01DA01235B420993324D03222800C0
:1051C0003178FEF7C3F8002806D04023401B834007
:1051D0002268013613432360317806222A48751C61
:1051E0002176FEF7B3F8002840D0284B002B22D1BF
:1051F0000722079B07339343083307936369049A95
:105200009B18636162E743432E0001219B18A4E7CA
:1052100000230A201900013663603278751C303A89
:10522000092A03D9002BC8D00991C6E741432E00B3
:1052300001238918F1E707AA009221003A00144BD4
:105240000398FDF797F80490049B0133D6D17B6E49
:10525000DB0705D4BB899B0502D4B86DFEF775F852
:10526000BB895B0600D51EE70D981EE707AA0092D2
:1052700021003A00064B0398FDF72AFBE3E7C046FE
:105280004C75000852750008567500087523000813
:105290001750000810B5044C13000A0001002068E4
:1052A000FFF7DCFE10BDC04610000020F0B593688B
:1052B00087B00C0002900492002B02D1002007B0AE
:1052C000F0BD8B891B0756D50B69002B53D0049B6F
:1052D0001B6801930C22A35E02221E00164013429B
:1052E0006FD1012201211A400B4200D1A2E030000F
:1052F00037000396002F00D10AE100280AD13A00B6
:105300000A210398FEF722F87E1C002802D0039B96
:105310000130C61A0596BE4200D905972068226959
:10532000A5686369904200D8FBE0059AED18AA428F
:1053300000DCF6E003992A0000F07DF923682100E3
:105340005B1902982360FDF755FC00286DD1012000
:10535000761B05D121000298FDF74CFC002864D192
:10536000039B049A5B190393049B7F1B9B685B1B45
:105370009360BFD1A2E721000298FDF71DFF00282E
:10538000A5D0012040429AE7019B1E685D68083362
:105390000193A76A216A002DF6D06E4A2B00954230
:1053A00000D9130032000298B84700283DDD049B65
:1053B000049A9B6836181B1A2D1A9360002BE8D1AB
:1053C0007CE700263500E4E7019B1B680393019B03
:1053D0005D68083301930C22A35E2068A668002D47
:1053E000F2D080229200134262D0AE4237D890228F
:1053F000D200134233D02169421A03200592626918
:105400004243D70FBF18059A7F1001325219BA4292
:1054100000D917005B053CD539000298FEF79AFECB
:10542000061E0AD10C23029A13604023A28913435B
:10543000A381A6E715000392CDE7059A216900F044
:105440007FF9A289444B1A4080231343A381059B13
:105450002661F61826602E006761FF1AA7602F00EC
:10546000AE4200D92E0032000399206800F0E3F824
:10547000A3689B1BA36023689B192360039B049A6A
:10548000DB190393049BED1B9B68DB1B9360A2D18C
:1054900014E73A00029800F0C9F9061ED7D1216935
:1054A0000298FEF7D7FD8022A3899343A381B9E731
:1054B0002369834202D36769AF4216D9AE4200D94D
:1054C0002E003200039900F0B6F8A36822689B1BF7
:1054D00092193700A3602260002BCFD121000298DF
:1054E000FDF788FB0028C9D09FE7802328001B0612
:1054F0009D4200D319483900FBF7B2FE3B00A66A73
:105500004343039A216A0298B047071EB6DC8CE732
:10551000019B00201B680393019B5F680833019384
:10552000E8E6059A934208DCA56A039A216A029884
:10553000A847051E00DD0AE777E7059A039900F002
:105540007AF8059AA36815009B1AA36023689B1834
:105550002360FCE600FCFF7F7FFBFFFFFFFFFF7F78
:1055600070B50E001D000E23C95E140096B0002910
:105570000CDAB2898023110019401A4214D1802319
:10558000DB0000202960236016B070BD6A4600F081
:1055900097F80028EDDBF02301991B021940044B1A
:1055A000C9184B425941EAE700214023E9E7C046C8
:1055B00000E0FFFFF0B502268B8905000C0085B0E6
:1055C000334207D023004733236023610123636103
:1055D00005B0F0BD03AB02AAFFF7C2FF029F019026
:1055E00039002800FEF7B6FD002808D10C22A35E82
:1055F0009A05EDD4032293431E43A681E2E780235C
:10560000A28920601343A381039B20616761002B63
:105610000CD028000E23E15E00F064F8002805D0CD
:105620000323A2899A43023B1343A381A389019ACE
:105630001343A381CCE710B5884202D98B18984256
:1056400008D300239A4207D0CC5CC4540133F9E755
:105650008B5C8354013AFBD210BD000070B5141E60
:105660000B4D05D010000B4900F060F8002801D167
:10567000280070BD2900200000F058F80028F7D05D
:105680002000054900F052F80028F1D00020F0E792
:105690005D7500085F750008A27500089422024B32
:1056A0005200985C7047C0466000002010B5034B64
:1056B0000A0001001868FFF7D1FF10BD100000209C
:1056C000002370B5064D0400080011002B60FBF7A5
:1056D000A5FC431C03D12B68002B00D0236070BDB8
:1056E00078020020002370B5064D040008002B60EE
:1056F000FBF70AFD431C03D12B68002B00D023606D
:1057000070BDC04678020020002370B5064D04002D
:1057100008002B60FBF70CFD431C03D12B68002B0A
:1057200000D0236070BDC0467802002002780B785C
:10573000002A03D0013001319A42F7D0D01A7047C5
:10574000002310B59A4200D110BDCC5CC454013383
:10575000F8E700007FB514001A00094B05001B682C
:105760000E00D868074B002C01D1074B1C000749DD
:10577000019302942B00009600F0A8F800F0B6F810
:105780001000002067750008A275000874750008F5
:10579000130010B50022FFF7DDFF70B50B0C150CE0
:1057A000002B1ED1002D0CD189B294B24C432100A4
:1057B000FEF7D0FC051E1BD022000021FDF75AFD8C
:1057C00016E02B1C0C1C89B292B24A439BB2A1B2C8
:1057D0005943140C0C19230C07D1240492B214431E
:1057E000E5E7002D01D1141CEDE70C230025036033
:1057F000280070BD37B5069D024C00952468A0476F
:105800003EBDC0464401002082B0002900D101A95C
:10581000101E06D0002B06D013780B601078431EA4
:10582000984102B0704702204042FAE7F7B50600FF
:105830000C001500002905D11100FEF78BFC0400B7
:105840002000FEBD002A03D1FEF704FC2C00F7E780
:1058500000F053F80700854202D84308AB42EFD36B
:1058600029003000FEF776FC0190002801D1019C50
:10587000E6E72A00BD4200D93A0021000198FFF76F
:105880005FFF21003000FEF7E5FBF0E710B5024CAA
:105890002468A04710BDC046400100200300081E38
:1058A00005D0FF2A04D98A2201201A60404270479D
:1058B00001200A70FBE70CB407B504AB04CB0193DD
:1058C000FFF7CCFB03B008BC02B018470EB417B505
:1058D000054C05AB04CB010020680193FFF7BEFB2C
:1058E0001EBC08BC03B0184710000020062010B5ED
:1058F00000F086F80120FBF765FB0B1F1B68181FE3
:10590000002B01DA0B58C018704770B5C46B050046
:10591000002C0AD18021FEF71DFCE863002806D088
:105920000300803310C09842FCD1002070BD0120DC
:105930004042FBE770B504000D0016001F2904D992
:10594000162303600120404207E0C36B002B05D003
:10595000E36BAD005D1928682E6070BDFFF7D5FFC1
:105960000028F5D0EEE770B504000D001F2904D91A
:10597000162303600120404270BDC36B002B04D08E
:105980008A009B181A68002A08D1200000F070F8DD
:105990002A000100200000F059F8EDE7012A09D0A3
:1059A000511C03D1162303600120E5E700212800E4
:1059B000196090470020DFE770B504000D001F2933
:1059C00002D90120404270BDC36B002B12D0E26BA4
:1059D000AB00D21813680120002BF4D00220591C10
:1059E000F1D00130012BEED000242800146098473C
:1059F0002000E8E7FFF789FF0028E8D0E1E7000092
:105A000010B5034B01001868FFF7ADFF10BDC0468D
:105A10001000002010B5034B0A0001001868FFF7C2
:105A200089FF10BD1000002010B5024B1868FFF769
:105A30006CFF10BD1000002010B5034B010018686A
:105A4000FFF7BAFF10BDC04610000020002370B55C
:105A5000064D0400080011002B60FBF7F3FA431C0D
:105A600003D12B68002B00D0236070BD780200208A
:105A700010B5FBF7E1FA10BD02B4714649084900C0
:105A8000095C49008E4402BC7047C04603B47146AD
:105A9000490840004900095E49008E4403BC704734
:105AA0008446100062468C461900634600E0C046FA
:105AB0001FB500F07FFC002801D40021C8421FBDA3
:105AC00010B500F0C3FB4042013010BD10B500F02E
:105AD00071FC002801DB002010BD012010BDC04674
